{
  "_format": "hh-sol-artifact-1",
  "contractName": "EnsReverseHelper",
  "sourceName": "contracts/EnsReverseHelper.sol",
  "abi": [
    {
      "inputs": [
        {
          "internalType": "address",
          "name": "addr",
          "type": "address"
        }
      ],
      "name": "name",
      "outputs": [
        {
          "internalType": "string",
          "name": "result",
          "type": "string"
        }
      ],
      "stateMutability": "view",
      "type": "function"
    },
    {
      "inputs": [
        {
          "internalType": "address[]",
          "name": "addr",
          "type": "address[]"
        }
      ],
      "name": "names",
      "outputs": [
        {
          "internalType": "string[]",
          "name": "",
          "type": "string[]"
        }
      ],
      "stateMutability": "view",
      "type": "function"
    }
  ],
  "bytecode": "0x6080604052348015600f57600080fd5b50610b328061001f6000396000f3fe608060405234801561001057600080fd5b50600436106100365760003560e01c8063019848921461003b578063280acc251461006b575b600080fd5b61005560048036038101906100509190610582565b61009b565b604051610062919061063f565b60405180910390f35b610085600480360381019061008091906106c6565b610279565b604051610092919061081f565b60405180910390f35b6060600073a58e81fe9b61b5c3fe2afd33cf304c454abfc7cb73ffffffffffffffffffffffffffffffffffffffff1663bffbe61c846040518263ffffffff1660e01b81526004016100ec9190610850565b602060405180830381865afa158015610109573d6000803e3d6000fd5b505050506040513d601f19601f8201168201806040525081019061012d91906108a1565b905060006e0c2e074ec69a0dfb2997ba6c7d2e1e73ffffffffffffffffffffffffffffffffffffffff16630178b8bf836040518263ffffffff1660e01b815260040161017991906108dd565b602060405180830381865afa158015610196573d6000803e3d6000fd5b505050506040513d601f19601f820116820180604052508101906101ba9190610936565b9050600073ffffffffffffffffffffffffffffffffffffffff168173ffffffffffffffffffffffffffffffffffffffff1614610272578073ffffffffffffffffffffffffffffffffffffffff1663691f3431836040518263ffffffff1660e01b815260040161022991906108dd565b600060405180830381865afa158015610246573d6000803e3d6000fd5b505050506040513d6000823e3d601f19601f8201168201806040525081019061026f9190610a84565b92505b5050919050565b606060008383905067ffffffffffffffff81111561029a57610299610968565b5b6040519080825280602002602001820160405280156102cd57816020015b60608152602001906001900390816102b85790505b50905060005b8484905081101561050557600073a58e81fe9b61b5c3fe2afd33cf304c454abfc7cb73ffffffffffffffffffffffffffffffffffffffff1663bffbe61c87878581811061032357610322610acd565b5b90506020020160208101906103389190610582565b6040518263ffffffff1660e01b81526004016103549190610850565b602060405180830381865afa158015610371573d6000803e3d6000fd5b505050506040513d601f19601f8201168201806040525081019061039591906108a1565b905060006e0c2e074ec69a0dfb2997ba6c7d2e1e73ffffffffffffffffffffffffffffffffffffffff16630178b8bf836040518263ffffffff1660e01b81526004016103e191906108dd565b602060405180830381865afa1580156103fe573d6000803e3d6000fd5b505050506040513d601f19601f820116820180604052508101906104229190610936565b9050600073ffffffffffffffffffffffffffffffffffffffff168173ffffffffffffffffffffffffffffffffffffffff16146104f6578073ffffffffffffffffffffffffffffffffffffffff1663691f3431836040518263ffffffff1660e01b815260040161049191906108dd565b600060405180830381865afa1580156104ae573d6000803e3d6000fd5b505050506040513d6000823e3d601f19601f820116820180604052508101906104d79190610a84565b8484815181106104ea576104e9610acd565b5b60200260200101819052505b505080806001019150506102d3565b508091505092915050565b6000604051905090565b600080fd5b600080fd5b600073ffffffffffffffffffffffffffffffffffffffff82169050919050565b600061054f82610524565b9050919050565b61055f81610544565b811461056a57600080fd5b50565b60008135905061057c81610556565b92915050565b6000602082840312156105985761059761051a565b5b60006105a68482850161056d565b91505092915050565b600081519050919050565b600082825260208201905092915050565b60005b838110156105e95780820151818401526020810190506105ce565b60008484015250505050565b6000601f19601f8301169050919050565b6000610611826105af565b61061b81856105ba565b935061062b8185602086016105cb565b610634816105f5565b840191505092915050565b600060208201905081810360008301526106598184610606565b905092915050565b600080fd5b600080fd5b600080fd5b60008083601f84011261068657610685610661565b5b8235905067ffffffffffffffff8111156106a3576106a2610666565b5b6020830191508360208202830111156106bf576106be61066b565b5b9250929050565b600080602083850312156106dd576106dc61051a565b5b600083013567ffffffffffffffff8111156106fb576106fa61051f565b5b61070785828601610670565b92509250509250929050565b600081519050919050565b600082825260208201905092915050565b6000819050602082019050919050565b600082825260208201905092915050565b600061075b826105af565b610765818561073f565b93506107758185602086016105cb565b61077e816105f5565b840191505092915050565b60006107958383610750565b905092915050565b6000602082019050919050565b60006107b582610713565b6107bf818561071e565b9350836020820285016107d18561072f565b8060005b8581101561080d57848403895281516107ee8582610789565b94506107f98361079d565b925060208a019950506001810190506107d5565b50829750879550505050505092915050565b6000602082019050818103600083015261083981846107aa565b905092915050565b61084a81610544565b82525050565b60006020820190506108656000830184610841565b92915050565b6000819050919050565b61087e8161086b565b811461088957600080fd5b50565b60008151905061089b81610875565b92915050565b6000602082840312156108b7576108b661051a565b5b60006108c58482850161088c565b91505092915050565b6108d78161086b565b82525050565b60006020820190506108f260008301846108ce565b92915050565b600061090382610544565b9050919050565b610913816108f8565b811461091e57600080fd5b50565b6000815190506109308161090a565b92915050565b60006020828403121561094c5761094b61051a565b5b600061095a84828501610921565b91505092915050565b600080fd5b7f4e487b7100000000000000000000000000000000000000000000000000000000600052604160045260246000fd5b6109a0826105f5565b810181811067ffffffffffffffff821117156109bf576109be610968565b5b80604052505050565b60006109d2610510565b90506109de8282610997565b919050565b600067ffffffffffffffff8211156109fe576109fd610968565b5b610a07826105f5565b9050602081019050919050565b6000610a27610a22846109e3565b6109c8565b905082815260208101848484011115610a4357610a42610963565b5b610a4e8482856105cb565b509392505050565b600082601f830112610a6b57610a6a610661565b5b8151610a7b848260208601610a14565b91505092915050565b600060208284031215610a9a57610a9961051a565b5b600082015167ffffffffffffffff811115610ab857610ab761051f565b5b610ac484828501610a56565b91505092915050565b7f4e487b7100000000000000000000000000000000000000000000000000000000600052603260045260246000fdfea264697066735822122096f4fbb72449028b95c38f0a95a48eff1bdb037caa34001de62aa41fbebee55564736f6c634300081c0033",
  "linkReferences": {},
  "deployedLinkReferences": {}
}